:100000000C94DA000C9402010C9402010C9402018D
:100010000C9402010C9402010C9402010C94020154
:100020000C9402010C9402010C9402010C94FA0548
:100030000C9402010C9402010C9402010C94020134
:100040000C94B0050C9402010C947E050C94580598
:100050000C9402010C9402010C9402010C94020114
:100060000C9402010C94020100407A10F35A00A093
:10007000724E18090010A5D4E80000E87648170071
:1000800000E40B54020000CA9A3B000000E1F505B1
:10009000000080969800000040420F000000A086FB
:1000A00001000000102700000000E803000000002D
:1000B0006400000000000A000000000001000000D1
:1000C00000002C76D888DC674F0823DFC1DFAE59EB
:1000D000E1B1B796E5E3E453C63AE651997696E87E
:1000E000E6C28426EB898C9B62ED407C6FFCEFBC02
:1000F0009C9F40F2BAA56FA5F490055A2AF75C932D
:100100006B6CF9676DC11BFCE0E40D47FEF520E662
:10011000B500D0ED902E0300943577050080841E45
:10012000080000204E0A000000C80C333333330FA0
:10013000986E12831141EF8D2114893BE65516CF3D
:10014000FEE6DB18D1844B381BF77C1D901DA4BB49
:10015000E424203284725E228100C9F124ECA1E5FE
:100160003D27000000080002010000030407000012
:1001700000000000000000000000250028002B0007
:1001800000000000240027002A00040404040404E2
:100190000404020202020202030303030303010236
:1001A0000408102040800102040810200102040805
:1001B0001020D10611241FBECFEFD4E0DEBFCDBF8B
:1001C00011E0A0E0B1E0E8E6FEE102C005900D928A
:1001D000AC34B107D9F722E0ACE4B1E001C01D9224
:1001E000A532B207E1F710E0CAEDD0E004C02197D4
:1001F000FE010E943A0DC93DD107C9F70E940907C7
:100200000C94320F0C94000090E0FC01E256FE4F7B
:10021000249186579E4FFC018491882399F090E0A9
:10022000880F991FFC01E058FE4FA591B491FC0185
:10023000EA58FE4F859194918FB7F894EC91E22B98
:10024000EC938FBF0895AF92BF92CF92DF92EF925F
:10025000FF920F931F93CF93DF936C017B018B0170
:10026000040F151FEB015E01AE18BF08C017D107C0
:1002700059F06991D601ED91FC910190F081E02D4A
:10028000C6010995892B79F7C501DF91CF911F919F
:100290000F91FF90EF90DF90CF90BF90AF900895B7
:1002A000CF93DF93FC0144815581608171818BE79D
:1002B00091E00E942301EC0142E050E068E171E02E
:1002C0008BE791E00E9423018C0F9D1FDF91CF915E
:1002D0000895FC01538D448D252F30E0842F90E04C
:1002E000821B930B541710F0CF9608950197089531
:1002F000FC01918D828D981761F0A28DAE0FBF2FFA
:10030000B11D5D968C91928D9F5F9F73928F90E04F
:1003100008958FEF9FEF0895FC01918D828D9817BE
:1003200031F0828DE80FF11D858D90E008958FEFFB
:100330009FEF0895FC01918D228D892F90E0805CC4
:100340009F4F821B91098F73992708958BE791E046
:100350000E949A0121E0892B09F420E0822F089560
:1003600080E090E0892B29F00E94A60181110C9475
:1003700000000895FC01A48DA80FB92FB11DA35A48
:10038000BF4F2C91848D90E001968F739927848FB5
:10039000A689B7892C93A089B1898C9183708064D8
:1003A0008C93938D848D981306C00288F389E02D79
:1003B00080818F7D80830895EF92FF920F931F932A
:1003C000CF93DF93EC0181E0888F9B8D8C8D981308
:1003D0001AC0E889F989808185FF15C09FB7F89414
:1003E000EE89FF896083E889F98980818370806460
:1003F00080839FBF81E090E0DF91CF911F910F91AB
:10040000FF90EF900895F62E0B8D10E00F5F1F4FB9
:100410000F731127E02E8C8D8E110CC00FB607FCC8
:10042000FACFE889F989808185FFF5CFCE010E9456
:10043000BA01F1CFEB8DEC0FFD2FF11DE35AFF4F09
:10044000F0829FB7F8940B8FEA89FB8980818062E4
:10045000CFCFCF93DF93EC01888D8823B9F0AA89A1
:10046000BB89E889F9898C9185FD03C0808186FD6F
:100470000DC00FB607FCF7CF8C9185FFF2CF8081BE
:1004800085FFEDCFCE010E94BA01E9CFDF91CF9178
:10049000089590E0FC01EE59FE4F2491FC01E256D4
:1004A000FE4F3491FC01E657FE4FE491EE23C9F074
:1004B000222339F0233001F1A8F4213019F1223040
:1004C00029F1F0E0EE0FFF1FEA58FE4FA591B4911D
:1004D0008FB7F894EC91611126C030953E233C9380
:1004E0008FBF08952730A9F02830C9F0243049F78C
:1004F000809180008F7D03C0809180008F778093F2
:100500008000DFCF84B58F7784BDDBCF84B58F7D4E
:10051000FBCF8091B0008F778093B000D2CF8091D5
:10052000B0008F7DF9CF3E2BDACFCF92DF92EF92E2
:10053000FF92CF93DF93EC01603282E07807CCF535
:10054000653B710514F064EB70E0898128E830E0C8
:10055000281B310987FD3395220F331F220F331FCC
:100560006901330FEE08FF088A8128E532E0281B75
:10057000310987FD3395220F331F220F331F032EBE
:10058000000C440B550B2C193D094E095F09DB018A
:1005900077FF02C0B0E0A0E00E94A90B24EB30E09E
:1005A00040E050E00E947F0BC20ED31EE41EF51EF9
:1005B000B601E881EC3070F5298188E890E0821B73
:1005C000910927FD9395880F991F880F991F681728
:1005D00079077CF02A8188E592E0821B910927FD4A
:1005E0009395880F991F880F991F681779070CF446
:1005F000CB010297880F991F4FB7F8942E2F30E048
:10060000F901EE0FFF1FE20FF31FE25BFE4F928333
:1006100081834FBFDF91CF91FF90EF90DF90CF901C
:1006200008951F93CF93DF93EC01162F88818C30B0
:1006300008F04DC0862F0E9404018881282F30E0E9
:10064000F901EE0FFF1FE20FF31FE25BFE4F1F7376
:100650006081607C612B608319821A822CE0622F9A
:100660000E942E0D829FB001112430E020E0AB01EA
:10067000420F531FFA01EE0FFF1FE40FF51FE25B5D
:10068000FE4F908196FD16C02F5F3F4F2C303105F5
:1006900071F781110FC01092800082E08093810079
:1006A0001092850010928400B19A80916F00826050
:1006B00080936F00E8818E2F90E0FC01EE0FFF1F0A
:1006C000E80FF91FE25BFE4F8081806480838881A0
:1006D000DF91CF911F9108950F931F93CF93DF93D5
:1006E000EC0188819981009759F02A813B81261776
:1006F000370730F081E0DF91CF911F910F9108957E
:100700008B016F5F7F4F0E94650E009759F09983B0
:1007100088831B830A832C813D81232B59F7FC019D
:100720001082E8CF80E0E7CFEF92FF920F931F9304
:10073000CF93DF936115710541F480E0DF91CF9194
:100740001F910F91FF90EF90089541155105B1F061
:100750007B01EC010C811D81040F151FB8010E9463
:100760006C03882351F3288139818C819D81B701E5
:10077000820F931F0E942B0F1D830C8381E0DECF1D
:10078000CF93DF93EC0188819981009711F00E944B
:10079000DC0D198218821D821C821B821A82DF9155
:1007A000CF910895EF92FF920F931F93CF93DF9312
:1007B000EC017B01198218821B821A821D821C8225
:1007C000FB0101900020E9F731978F01061B170B01
:1007D000B8010E946C03811109C0CE01DF91CF9155
:1007E0001F910F91FF90EF900C94C0031D830C8319
:1007F000B70188819981DF91CF911F910F91FF906F
:10080000EF900C942B0FCF92DF92EF92FF920F9309
:100810001F93CF93DF93CDB7DEB7A1970FB6F894B0
:10082000DEBF0FBECDBF7C01CB01BA01F701118243
:10083000108213821282158214828E010F5F1F4F65
:1008400022E044E00E946C086C01009771F0FC010A
:1008500001900020E9F731978F01081B190BB801AF
:10086000C7010E946C03811112C0C7010E94C0031E
:10087000A1960FB6F894DEBF0FBECDBFDF91CF912A
:100880001F910F91FF90EF90DF90CF900895F701A7
:1008900015830483B601808191810E942B0FE8CFDC
:1008A000CF93DF93EC01FB0101900020E9F7319732
:1008B000AF01461B570B0E949403811103C0CE0168
:1008C0000E94C003CE01DF91CF910895CF93DF93B3
:1008D000EC01FB0144815581608171810E94940388
:1008E000811103C0CE010E94C003CE01DF91CF91E0
:1008F0000895FC0180819181009711F00C94DC0D2A
:1009000008958F929F92AF92BF92CF92DF92EF9213
:10091000FF92CF93DF93CDB7DEB76A970FB6F89407
:10092000DEBF0FBECDBF2B8B3C8B4D8B5E8B6F8B99
:10093000788F898F9A8F8B889C88AD88BE88CF8866
:10094000D88CE98CFA8C20EE3EE245E652E4C701F1
:10095000B6010E94C10AAB01BC01CE010D960E94F6
:10096000030420EE3EE245E652E4C501B4010E94D4
:10097000C10AAB01BC01CE0107960E9403046BE1E2
:1009800071E0CE0101960E94D203BE01695F7F4FE4
:10099000CE0101960E9466046BE271E00E94500451
:1009A000BE01635F7F4F0E9466040E945001CE012A
:1009B00001960E947904CE0107960E947904CE0127
:1009C0000D960E947904A50194016BED7FE089E406
:1009D00090E40E94190C20E030E044E353E40E94CC
:1009E000C10A2BED3FE049E450E40E94860C2BED58
:1009F0003FE049EC5FE30E94190C2BED3FE049EC2E
:100A00005FE30E94190C2BED3FE049EC5FE30E948D
:100A1000860C2BED3FE049EC5FE30E94860C0E94C0
:100A2000F80C8EE192E00E949502A70196016BED11
:100A30007FE089E490E40E94190C20E030E044E378
:100A400053E40E94C10A2BED3FE049E450E40E94C8
:100A5000860C2BED3FE049EC5FE30E94190C2BED77
:100A60003FE049EC5FE30E94190C2BED3FE049ECBD
:100A70005FE30E94860C2BED3FE049EC5FE30E94B0
:100A8000860C0E94F80C8BE192E00E9495026A9617
:100A90000FB6F894DEBF0FBECDBFDF91CF91FF90B0
:100AA000EF90DF90CF90BF90AF909F908F90089580
:100AB0001F920F920FB60F9211242F933F934F93D3
:100AC0005F936F937F938F939F93AF93BF93EF93B6
:100AD000FF938BE791E00E94BA01FF91EF91BF91E4
:100AE000AF919F918F917F916F915F914F913F91C6
:100AF0002F910F900FBE0F901F9018951F920F927D
:100B00000FB60F9211242F938F939F93EF93FF9320
:100B1000E0918B01F0918C018081E0919101F09145
:100B2000920182FD1BC09081809194018F5F8F7331
:100B300020919501821741F0E0919401F0E0E55891
:100B4000FE4F958F80939401FF91EF919F918F912C
:100B50002F910F900FBE0F901F9018958081F4CFAA
:100B60001F920F920FB60F9211242F933F938F93E2
:100B70009F93AF93BF938091770190917801A0915B
:100B80007901B0917A013091760123E0230F2D375E
:100B900058F50196A11DB11D209376018093770130
:100BA00090937801A0937901B0937A0180917201BA
:100BB00090917301A0917401B09175010196A11DEE
:100BC000B11D8093720190937301A0937401B0934F
:100BD0007501BF91AF919F918F913F912F910F9090
:100BE0000FBE0F901F90189526E8230F0296A11DA7
:100BF000B11DD2CF1F920F920FB60F9211242F93D7
:100C00003F934F935F936F937F938F939F93AF9394
:100C1000BF93CF93DF93EF93FF9380914C01C091EB
:100C20004D01D0E087FF24C010928500109284000F
:100C300080914C018F5F80934C0180914C01082E74
:100C4000000C990B8C179D0724F480914C018C307B
:100C5000C4F18091840090918500049680349C4971
:100C600008F47AC08091840090918500049676C043
:100C700080914C01082E000C990B8C179D07C4F62F
:100C8000E0914C018E2FEE0F990BFC01EE0FFF1F30
:100C9000E80FF91FE25BFE4F808186FFC9CFE0912C
:100CA0004C018E2FEE0F990BFC01EE0FFF1FE80F8A
:100CB000F91FE25BFE4F808160E08F730E94490262
:100CC000B7CF2091840030918500E0914C018E2FA8
:100CD000EE0F990BFC01EE0FFF1FE80FF91FE25B0F
:100CE000FE4F81819281820F931F909389008093A0
:100CF0008800E0914C018E2FEE0F990BFC01EE0F56
:100D0000FF1FE80FF91FE25BFE4F808186FF11C0D5
:100D1000E0914C018E2FEE0F990BFC01EE0FFF1F9F
:100D2000E80FF91FE25BFE4F808161E08F730E9444
:100D30004902FF91EF91DF91CF91BF91AF919F91C8
:100D40008F917F916F915F914F913F912F910F9074
:100D50000FBE0F901F90189580E49CE99093890036
:100D6000809388008FEF80934C01E3CFFC0190913A
:100D70004D019C3098F481E0890F80934D01908360
:100D8000892F90E0FC01EE0FFF1FE80FF91FE25BD7
:100D9000FE4F88EB9BE09283818308958FEF8083E1
:100DA0000895EBE7F1E01382128288EE93E0A0E071
:100DB000B0E084839583A683B7838AE091E0918332
:100DC000808385EC90E09587848784EC90E097871A
:100DD000868780EC90E0918B808B81EC90E0938B08
:100DE000828B82EC90E0958B848B86EC90E0978BE5
:100DF000868B118E128E138E148E8EE192E00E94DD
:100E0000B6068BE192E00E94B60688E192E00C946F
:100E1000B606CF93DF93CDB7DEB7A8970FB6F89499
:100E2000DEBF0FBECDBF789484B5826084BD84B52B
:100E3000816084BD85B5826085BD85B5816085BDD5
:100E400080916E00816080936E001092810080918D
:100E50008100826080938100809181008160809315
:100E60008100809180008160809380008091B1003A
:100E700084608093B1008091B00081608093B00065
:100E800080917A00846080937A0080917A008260F9
:100E900080937A0080917A00816080937A008091BB
:100EA0007A00806880937A001092C10089E00E94E5
:100EB00004018AE00E9404018BE00E94040169E0C1
:100EC00070E08EE192E00E9411036AE070E08BE135
:100ED00092E00E9411036BE070E088E192E00E94D2
:100EE00011038BED9FE0A9ECBFE389879A87AB875D
:100EF000BC878D879E87AF87B88B2BED3A854B8556
:100F00005C856BED7E858F8598890E94810470E0F9
:100F100060E088E192E00E949502E0918B01F091FF
:100F20008C0182E08083E0918701F091880110823A
:100F3000E0918901F0918A018FEC808310929301F6
:100F4000E0918F01F091900186E08083E0918D0126
:100F5000F0918E01808180618083E0918D01F0911C
:100F60008E01808188608083E0918D01F0918E01F7
:100F7000808180688083E0918D01F0918E01808175
:100F80008F7D808341EF51EB61E270E4CE010196E9
:100F90000E94030441EF51EB61E270E4CE014196FF
:100FA0000E9403046BE171E0CE0147960E94D203D8
:100FB000BE016F5E7F4FCE0147960E946604BE0160
:100FC0006F5F7F4F0E9466040E945001CE014796DA
:100FD0000E947904CE0141960E947904CE010196C7
:100FE0000E94790440E050E0BA01CE0101960E94CF
:100FF000030440E050E0BA01CE0141960E94030490
:1010000040E050E060E87FE3CE0147960E94030491
:1010100040E050E060E87FE3CE014D960E9403047B
:1010200064E271E0CE0183960E94D203BE01635E4A
:101030007F4FCE0183960E9466046DE271E00E94AC
:101040005004BE01695E7F4F0E94660466E371E052
:101050000E945004BE016F5E7F4F0E94660461E4EF
:1010600071E00E945004BE016F5F7F4F0E946604D2
:101070000E945001CE0183960E947904CE014D96C4
:101080000E947904CE0147960E947904CE014196D0
:101090000E947904CE0101960E94790400E010E0DC
:1010A00019821A821B821C821D821E821F82188650
:1010B00020E03A814B815C8160E07E818F81988560
:1010C0000E9481040115110559F30E94A60188238D
:1010D00039F30E940000E4CFEF920F931F93CF9358
:1010E000DF93E80134E047FD34E1042E000C550B9A
:1010F00057FF03C0519541955109E32E022F242F2C
:10110000AE010E948A08CE01DF91CF911F910F910D
:10111000EF900895A9E0B0E0E0E9F8E00C94B70B97
:101120006A01F22EB02E102FFBE3AF2EA01608F4AA
:101130001BE31F5F012F27E0AE014F5F5F4F0E944F
:10114000E909BC018981982F9970913009F43FC059
:101150009BE2E1FC04C09E2D9170E0FC3AC05E2D44
:101160005071E82FE87083FF46C084E0911101C000
:1011700083E0EF2DE81B8F1508F0E0E0D6018E2FFD
:1011800020E2552351F1992329F0D6019C93C60101
:1011900001966C0196012D5F3F4FE2FE24C08EE464
:1011A000D6018C9391E411969C93119712968C938F
:1011B000D9018E2F90E281111BC0E20FF32FF11D98
:1011C00010828EEF9FEF2996ECE00C94D30B9DE2FA
:1011D000C6CF90E2C4CF2D9381508111FCCFCE0EAB
:1011E000D11CE0E0D0CF8EE6D6018C9391E6DBCF28
:1011F0009D938150E0CF482F447082FF3DC084E032
:10120000911101C083E08F1510F4EF2DE81BD6017A
:101210008E2F20E2552309F1992329F0D6019C93C2
:10122000C60101966C0196012D5F3F4FE2FE1BC087
:1012300089E4D6018C938EE411968C93119786E401
:1012400012968C93D9018E2F90E2882309F4B5CFA2
:101250009D938150FACF2D9381508111FCCFCE0EFA
:10126000D11CE0E0D9CF89E6D6018C938EE61196A9
:101270008C93119786E6E4CF9B0177FF02C030E0A4
:1012800020E0A1E0B0E0911102C0B0E0A0E0F901DF
:101290003196AE0FBF1F8B2C912CBB2009F461C07F
:1012A0005401EFEFAE1ABE0AAA0DBB1DFA161B06BB
:1012B00019F014F04F2D4A1B511188C0E3FC59C09E
:1012C0007601A42FB0E2A1114FC0C40ED11C992306
:1012D00009F45BC040E0D6011196F60190836D01E0
:1012E000552309F448C0012F060F9A81582F5071D9
:1012F00084FF03C0913309F4015010160CF047C06D
:10130000093008F008E0EEE2FE2E5B01A01AB108F9
:1013100085019194819491082F3F320729F4D601D9
:10132000FC92F60131966F016217730794F1021770
:1013300013077CF5DB01A21BB30BAA24A394B12CE9
:10134000AC0EBD1EAA0DBB1D11968C91215031090A
:10135000D601119628153905F4F0F60180836D0148
:10136000DBCFB12CA12CA0CFF701B1937F01A1500D
:10137000AACF9111B0CFD601942F50E302C05D9354
:1013800091509111FCCFC40ED11C40E0ACCF01E0D4
:10139000BACF80E3DBCF6217730731F4963388F45A
:1013A000953311F4552369F0F6018083FD01842FF4
:1013B00090E2811108C0A40FB11D1C9290E080E062
:1013C00002CF81E3F1CF91938150F3CF911183CF7D
:1013D0008ACF283008F027E03327DA01990F311D32
:1013E00087FD916000966105710539F432602E5FCA
:1013F0003D9330E32A95E1F708959F3F30F0803820
:101400007105610509F03C5F3C5F3D93913008F048
:101410008068911DDF93CF931F930F93FF92EF92FC
:10142000192F987F9695E92F96959695E90FFF27A6
:10143000EE53FF4F99273327EE24FF24A701E7013E
:1014400005900894079428F4360FE71EF81E491FEC
:10145000511D660F771F881F991F0694A1F70590ED
:10146000079428F4E70EF81E491F561FC11D770F79
:10147000881F991F661F0694A1F70590079428F40A
:10148000F80E491F561FC71FD11D880F991F661FD1
:10149000771F0694A1F70590079420F4490F561F73
:1014A000C71FD81F990F661F771F881F0694A9F7BB
:1014B00084911095177041F0D695C795579547952B
:1014C000F794E7941A95C1F7E8E6F0E06894159070
:1014D000159135916591959105907FE27395E1188D
:1014E000F10A430B560BC90BD009C0F7E10CF11EF2
:1014F000431F561FC91FD01D7EF4703311F48A9507
:10150000E6CFE894015030F0080F0AF400270217E4
:1015100008F4202F2395022F7A3328F079E37D9366
:101520002A95E9F710C07D932A9589F60694979538
:101530006795379517951794E118F10A430B560BE9
:10154000C90BD00998F023957E9173957A3308F0F2
:1015500070E37C932013B8F77E9170617D9330F037
:10156000839571E37D9370E32A95E1F71124EF9061
:10157000FF900F911F91CF91DF91992787FD909553
:1015800008950E94D40A0C94450B0E94370B38F042
:101590000E943E0B20F0952311F00C942E0B0C941E
:1015A000340B11240C94790B0E94560B70F3959F09
:1015B000C1F3950F50E0551F629FF001729FBB274A
:1015C000F00DB11D639FAA27F00DB11DAA1F649FE6
:1015D0006627B00DA11D661F829F2227B00DA11D99
:1015E000621F739FB00DA11D621F839FA00D611D1F
:1015F000221F749F3327A00D611D231F849F600D40
:10160000211D822F762F6A2F11249F5750409AF068
:10161000F1F088234AF0EE0FFF1FBB1F661F771FF4
:10162000881F91505040A9F79E3F510580F00C94BF
:101630002E0B0C94790B5F3FE4F3983ED4F3869520
:1016400077956795B795F795E7959F5FC1F7FE2B5F
:10165000880F911D9695879597F9089597F99F673B
:1016600080E870E060E008959FEF80EC089500242A
:101670000A941616170618060906089500240A94F7
:1016800012161306140605060895092E0394000C7D
:1016900011F4882352F0BB0F40F4BF2B11F460FF0C
:1016A00004C06F5F7F4F8F4F9F4F089557FD905835
:1016B000440F551F59F05F3F71F04795880F97FB16
:1016C000991F61F09F3F79F08795089512161306D0
:1016D0001406551FF2CF4695F1DF08C016161706FF
:1016E0001806991FF1CF8695710561050894089534
:1016F000E894BB2766277727CB0197F90895052E35
:1017000097FB1EF400940E94960B57FD07D00E9491
:10171000E80B07FC03D04EF40C94960B50954095C3
:10172000309521953F4F4F4F5F4F0895909580958D
:10173000709561957F4F8F4F9F4F08950E940A0CBF
:10174000A59F900DB49F900DA49F800D911D112415
:101750000895B7FF0C949E0B0E949E0B821B930B67
:1017600008952F923F924F925F926F927F928F9245
:101770009F92AF92BF92CF92DF92EF92FF920F9320
:101780001F93CF93DF93CDB7DEB7CA1BDB0B0FB62A
:10179000F894DEBF0FBECDBF09942A8839884888E7
:1017A0005F846E847D848C849B84AA84B984C8847D
:1017B000DF80EE80FD800C811B81AA81B981CE0F74
:1017C000D11D0FB6F894DEBF0FBECDBFED01089559
:1017D000A1E21A2EAA1BBB1BFD010DC0AA1FBB1F35
:1017E000EE1FFF1FA217B307E407F50720F0A21BA7
:1017F000B30BE40BF50B661F771F881F991F1A9414
:1018000069F760957095809590959B01AC01BD013D
:10181000CF010895A29FB001B39FC001A39F700D97
:10182000811D1124911DB29F700D811D1124911DE8
:1018300008955058BB27AA270E94310C0C94450BE1
:101840000E94370B38F00E943E0B20F039F49F3F86
:1018500019F426F40C94340B0EF4E095E7FB0C9489
:101860002E0BE92F0E94560B58F3BA176207730725
:101870008407950720F079F4A6F50C94780B0EF404
:10188000E0950B2EBA2FA02D0B01B90190010C0190
:10189000CA01A0011124FF27591B99F0593F50F4A8
:1018A000503E68F11A16F040A22F232F342F442700
:1018B000585FF3CF469537952795A795F0405395F8
:1018C000C9F77EF41F16BA0B620B730B840BBAF0C8
:1018D0009150A1F0FF0FBB1F661F771F881FC2F733
:1018E0000EC0BA0F621F731F841F48F48795779547
:1018F0006795B795F7959E3F08F0B0CF9395880F01
:1019000008F09927EE0F9795879508950E949A0CF5
:101910000C94450B0E943E0B58F00E94370B40F090
:1019200029F45F3F29F00C942E0B51110C94790B84
:101930000C94340B0E94560B68F39923B1F3552392
:1019400091F3951B550BBB27AA27621773078407D2
:1019500038F09F5F5F4F220F331F441FAA1FA9F368
:1019600035D00E2E3AF0E0E832D091505040E69556
:10197000001CCAF72BD0FE2F29D0660F771F881FB7
:10198000BB1F261737074807AB07B0E809F0BB0BAA
:10199000802DBF01FF2793585F4F3AF09E3F5105BE
:1019A00078F00C942E0B0C94790B5F3FE4F3983E87
:1019B000D4F3869577956795B795F7959F5FC9F7A7
:1019C000880F911D9695879597F90895E1E0660F28
:1019D000771F881FBB1F621773078407BA0720F0A1
:1019E000621B730B840BBA0BEE1F88F7E09508950A
:1019F0000E94FF0C6894B1110C94790B08950E9419
:101A00005E0B88F09F5798F0B92F9927B751B0F027
:101A1000E1F0660F771F881F991F1AF0BA95C9F772
:101A200014C0B13091F00E94780BB1E008950C948D
:101A3000780B672F782F8827B85F39F0B93FCCF340
:101A4000869577956795B395D9F73EF490958095EF
:101A5000709561957F4F8F4F9F4F0895991B79E047
:101A600004C0991F961708F0961B881F7A95C9F72E
:101A700080950895EE0FFF1F0590F491E02D0994D5
:101A80000F931F93CF93DF938230910510F482E080
:101A900090E0E0912302F091240230E020E0B0E0F9
:101AA000A0E0309799F42115310509F44AC0281BAC
:101AB000390B24303105D8F58A819B816115710578
:101AC00089F1FB0193838283FE0111C04081518122
:101AD0000281138148175907E0F04817590799F414
:101AE000109761F012960C93129713961C933296EE
:101AF000CF01DF91CF911F910F91089500932302A1
:101B000010932402F4CF2115310551F042175307E9
:101B100038F0A901DB019A01BD01DF01F801C1CF55
:101B2000EF01F9CF9093240280932302CDCFFE01E1
:101B3000E20FF31F81939193225031093983288357
:101B4000D7CF2091210230912202232B41F4209102
:101B5000020130910301309322022093210220914F
:101B60000001309101012115310541F42DB73EB737
:101B70004091040150910501241B350BE091210295
:101B8000F0912202E217F307A0F42E1B3F0B281757
:101B9000390778F0AC014E5F5F4F2417350748F0E6
:101BA0004E0F5F1F50932202409321028193919325
:101BB0009FCFF0E0E0E09CCFCF93DF930097E9F078
:101BC000FC01329713821282A0912302B091240269
:101BD000ED0130E020E01097A1F420813181820FE7
:101BE000931F20912102309122022817390709F012
:101BF00061C0F0932202E0932102DF91CF9108951A
:101C0000EA01CE17DF07E8F54A815B819E014115A5
:101C10005105B1F7E901FB83EA8349915991C40F5A
:101C2000D51FEC17FD0761F4808191810296840F26
:101C3000951FE90199838883828193819B838A839D
:101C4000F0E0E0E012968D919C9113970097B9F522
:101C50002D913C911197CD010296820F931F2091F7
:101C60002102309122022817390739F6309751F5B1
:101C70001092240210922302B0932202A093210218
:101C8000BCCFD383C28340815181840F951FC81775
:101C9000D90761F44E5F5F4F88819981480F591FC2
:101CA000518340838A819B819383828321153105EF
:101CB00009F0B0CFF0932402E09323029ECFFD0100
:101CC000DC01C0CF13821282D7CFB0E0A0E0EBE6F8
:101CD000FEE00C94B30B8C01009751F4CB010E94F1
:101CE000400D8C01C801CDB7DEB7E0E10C94CF0BFD
:101CF000FC01E60FF71F9C0122503109E217F307A0
:101D000008F49DC0D901CD91DC911197C617D70772
:101D100098F0C530D10530F3CE01049786179707A8
:101D200008F3C61BD70B2297C193D1936D937C9375
:101D3000CF010E94DC0DD6CF5B01AC1ABD0A4C016D
:101D40008C0E9D1EA0912302B0912402512C412C97
:101D5000F12CE12C109731F5809121029091220213
:101D60008815990509F05CC04616570608F058C05A
:101D70008091000190910101009741F48DB79EB7C9
:101D80004091040150910501841B950BE817F90758
:101D900008F055C0F0932202E0932102F90171830B
:101DA0006083A0CF8D919C91119712966C901297A1
:101DB00013967C901397A815B90559F56C0142E06C
:101DC000C40ED11CCA14DB0420F1AC014A195B0912
:101DD000DA011296159780F06282738251834083F4
:101DE000D9016D937C93E114F10471F0D70113963E
:101DF000FC93EE93129776CF22968C0F9D1FF901DC
:101E000091838083F301EFCFF0932402E0932302C8
:101E100069CF4816590608F42C017D01D3019ACFE9
:101E2000CB010E94400D7C01009749F0AE01B80142
:101E30000E94220FC8010E94DC0D870153CF10E0E1
:101E400000E050CFFB01DC0102C001900D92415037
:101E50005040D8F70895FB01DC0101900D9200205D
:081E6000E1F70895F894FFCFAB
:101E680000002502800000000000DC012301690158
:101E780029029A0178018C010D0A00616E676C6570
:101E8800733A20004C5F424F5A4F3A2000525F424B
:101E98004F5A4F3A20004C5F4F46465345543A201C
:0C1EA80000525F4F46465345543A20005C
:00000001FF
